:100000000C9435000C945D000C945D000C945D0024
:100010000C945D000C945D000C945D000C945D00EC
:100020000C945D000C945D000C945D000C940B032B
:100030000C945D000C945D000C945D000C945D00CC
:100040000C94C1020C945D000C945D000C945D0056
:100050000C945D000C945D000C945D000C945D00AC
:100060000C945D000C945D00D40411241FBECFEFEE
:10007000D8E0DEBFCDBF11E0A0E0B1E0E0E5FAE0FE
:1000800002C005900D92AA34B107D9F721E0AAE485
:10009000B1E001C01D92A736B207E1F710E0C5E359
:1000A000D0E004C02197FE010E941105C433D1079E
:1000B000C9F70E94F2030C9426050C940000A0914D
:1000C0005A01B0915B01ED91FC9111970190F08183
:1000D000E02D682FCD0109942091640130916501D4
:1000E0002115310529F4019751F080E20C945F004D
:1000F0002130310521F022303105A9F308958AE03D
:10010000F5CFFC01CA011582148213821282A1E08C
:10011000A68361157105B9F0AA27BB27A61BB70BEB
:10012000A417B50780F055834483860F971F019766
:1001300093838283168247835087618772873487CF
:10014000238781E0089580E00895CF93C0E08091F7
:100150006601C81740F480E20E945F0080E20E94BE
:100160005F00CF5FF4CFCF910895E0ECF0E08181A4
:1001700096E092839581907F958390E1948390811E
:10018000926090838B7180618860818381E00895A3
:10019000CF93DF931F92CDB7DEB76983DC01129650
:1001A000ED91FC91CE01019609950F90DF91CF91D1
:1001B0000895DC011296ED91FC91CB010994FC01AC
:1001C000CB012681211113C0648175812281338185
:1001D0006217730731F421E026830384F485E02D50
:1001E00009949B012F5F3F4F35832483F6CF80E036
:1001F0000895EF92FF921F93CF93DF93CDB7DEB7B1
:100200002E970FB6F894DEBF0FBECDBFAB01BC0179
:10021000198618861B861A8684E191E09A83898361
:100220002EEC31E0CE0101960E948100182F882328
:10023000C9F0E0905A01F0905B01BE01625F7F4F10
:10024000CE0101960E94DF00882361F0D701ED9175
:10025000FC910190F081E02D6E85C7010995811117
:10026000ECCF10E0812F2E960FB6F894DEBF0FBEB4
:10027000CDBFDF91CF911F91FF90EF900895CF9266
:10028000DF92EF92FF926B017C0181E090E00E948F
:100290006C008091640190916501049710F40E94B4
:1002A000A500C701B6010E94F9008AE00E945F0024
:1002B00083E090E09093650180936401FF90EF905C
:1002C000DF90CF900895EF92FF920F931F93CF93FB
:1002D000DF93CDB7DEB72E970FB6F894DEBF0FBE13
:1002E000CDBF8C0184E191E09A8389831E830D83C5
:1002F0008FEF9FEF9C838B831F8219870887882746
:100300009927801B910B9B878A878EEC91E09D87B4
:100310008C87F12CE12CBE01625F7F4FCE010196EC
:100320000E94DF00882339F08E85882321F08FEF2B
:10033000E81AF80AF0CFB801C7012E960FB6F89464
:10034000DEBF0FBECDBFDF91CF911F910F91FF9008
:10035000EF900895CF92DF92EF92FF920E94630197
:100360006B017C0190E080E00E946C008091640150
:1003700090916501009729F08D7F019711F40E94FB
:10038000A500C701B6010E94F90010926501109204
:100390006401FF90EF90DF90CF900895611529E000
:1003A000720730F4FB012081FC01208381E0089575
:1003B00080E00895FC0180819091C00095FFFCCF02
:1003C0008093C6008091C00086FFFCCF8091C00062
:1003D00080648093C00081E00895FC018091C0009A
:1003E00087FFFCCF9091C00096959695977080916D
:1003F000C60080839111F2CF81E0089577FD06C099
:10040000FB016491FC01608381E0089580E0089520
:10041000FC01611584E0780780F4F999FECF61BD95
:10042000872F837092B59C7F982B92BDF89AF8998C
:10043000FECF80B5808381E0089580E008952F92FB
:100440003F924F925F926F927F928F929F92AF9264
:10045000BF92CF92DF92EF92FF920F931F93CF93B1
:10046000DF9300D01F92CDB7DEB78B010E94AA01A7
:1004700086E191E00E94AA019AE0492E512C612C5C
:10048000712CD801ED91FC910190F081E02DBE011D
:100490006F5F7F4FC8010995882309F44EC0C9805A
:1004A00082E090E00E946C0080916401909165016F
:1004B000009729F08D7F019711F40E94A5002090EC
:1004C0005A0130905B01D12CF12CE12CB3E0BA83BE
:1004D00084E6882E912CA12CB12CC701B601A50170
:1004E00094010E94E4042B83622F605DD101ED91A1
:1004F000FC910190F081E02DC10109958B81A82F1D
:10050000B0E0A50194010E940605C61AD70AE80AC0
:10051000F90AC501B401A30192010E94E404490152
:100520005A01AA81A150AA83A111D7CF82E090E0FD
:100530009093650180936401A4CF89E191E00E94CA
:10054000AA0181E090E00E946C0083E090E090932B
:100550006501809364010F900F900F90DF91CF9110
:100560001F910F91FF90EF90DF90CF90BF90AF90D1
:100570009F908F907F906F905F904F903F902F90C3
:1005800008951F920F920FB60F9211242F933F934D
:100590008F939F93AF93BF93809154019091550196
:1005A000A0915601B09157013091530123E0230FE0
:1005B0002D3758F50196A11DB11D2093530180934D
:1005C000540190935501A0935601B0935701809127
:1005D0004F0190915001A0915101B09152010196AB
:1005E000A11DB11D80934F0190935001A093510123
:1005F000B0935201BF91AF919F918F913F912F91F5
:100600000F900FBE0F901F90189526E8230F0296AB
:10061000A11DB11DD2CF1F920F920FB60F921124C0
:100620002F933F934F935F936F937F938F939F93FA
:10063000AF93EF93FF93EFB7F89460914A018091E5
:100640004B01782F737080914B0186958695909120
:100650004C019295990F990F907C492F482B8091CE
:100660004C0186958695582F537080914C01829548
:100670008F7090914D019295907F292F282B80911A
:100680004D0182958F70382F337080918400909146
:100690008500969587959370EFBF683EA3E07A0733
:1006A00068F5483EE3E05E0748F5283EA3E03A07D8
:1006B00028F5883EE3E09E0708F5F901319620E031
:1006C000E83EA3E0FA0718F0E85EF34021E0420FAD
:1006D000511D483E23E0520709F082C021E050E05E
:1006E00040E0620F711D683EA3E07A0711F470E0EC
:1006F00060E0737053709F0133709370EFB7F8949C
:1007000060934A01737060914B016C7F672B60931B
:100710004B01742F770F770F60914B016370672B3C
:1007200060934B01642F6295669566956370409166
:100730004C014C7F462B40934C015370550F550F85
:1007400040914C01437F452B40934C01522F5295D1
:10075000507F40914C014F70452B40934C01422FEC
:1007600042954F7020914D01207F242B20934D0105
:1007700033703295307F20914D012F7C232B2093B5
:100780004D01382F3295330F330F307C20914D01BE
:100790002F73232B20934D01282F2695269580918A
:1007A0004E01807C822B80934E019295990F990F78
:1007B000907C80914E018F73892B80934E01EFBF07
:1007C000FF91EF91AF919F918F917F916F915F9189
:1007D0004F913F912F910F900FBE0F901F90189542
:1007E00020E07FCFCF93DF93CDB7DEB72D970FB645
:1007F000F894DEBF0FBECDBF789484B5826084BD0F
:1008000084B5816084BD85B5826085BD85B5816014
:1008100085BD80916E00816080936E001092810092
:10082000809181008260809381008091810081604D
:10083000809381008091800081608093800080910E
:10084000B10084608093B1008091B000816080939A
:10085000B00080917A00846080937A0080917A0061
:10086000826080937A0080917A00816080937A0020
:1008700080917A00806880937A001092C1000E9473
:10088000B500882331F08DEE91E090935F01809365
:100890005E010E94B500882331F08AED91E09093CB
:1008A0006301809362018CE591E0909359018093FC
:1008B000580180E691E090935B0180935A018BE1AF
:1008C00091E00E9463010E943F01809166018233A2
:1008D00019F08F5F80936601198618861B861A8629
:1008E00084E191E09A838983C0900C01D0900D013E
:1008F000E0900E01F0900F012EEC31E0B701A6015F
:10090000CE0101960E948100882339F0BE016F5FFD
:100910007F4F80E391E00E941F02198618861B8694
:100920001A8684E191E09A8389832EEF31E0B70142
:10093000A601CE0101960E948100882339F0BE01F4
:100940006F5F7F4F84E391E00E941F021986188633
:100950001B861A8684E191E09A83898328E032E03D
:10096000B701A601CE0101960E948100882339F0CB
:10097000BE016F5F7F4F8CE391E00E941F02809168
:100980006601882319F081508093660183E491E029
:100990000E9463010E943F0100E010E00115110573
:1009A000E9F30E940000FACFE8E5F1E08AE091E087
:1009B0009583848384E091E09187808783E090E051
:1009C0009587848716860895A1E21A2EAA1BBB1B61
:1009D000FD010DC0AA1FBB1FEE1FFF1FA217B3070B
:1009E000E407F50720F0A21BB30BE40BF50B661F21
:1009F000771F881F991F1A9469F7609570958095E5
:100A000090959B01AC01BD01CF0108950E9417058F
:100A1000A59F900DB49F900DA49F800D911D112452
:100A20000895EE0FFF1F0590F491E02D0994A29F09
:100A3000B001B39FC001A39F700D811D1124911DB2
:100A4000B29F700D811D1124911D0895F894FFCF60
:100A500000000000C80000000000D9000000FFFFF7
:100A600000000000DF00202800290028204D656DCF
:100A70006F726965732064756D702064656D6F00B9
:100A800052414D0050524F474D454D004545505243
:0A0A90004F4D002920446F6E6500F1
:00000001FF
